:020000040800F2
:100000000000022035110008F50F0008FD0F000860
:10001000051000080D100008151000080000000071
:100020000000000000000000000000001D1000089B
:100030002B100008000000003910000847100008CD
:100040008511000885110008851100088511000838
:100050008511000885110008851100088511000828
:100060008511000885110008851100088511000818
:100070008511000885110008851100088511000808
:100080008511000885110008851100085510000829
:10009000691000087D100008911000088511000803
:1000A00085110008851100088511000885110008D8
:1000B00085110008851100088511000885110008C8
:1000C00085110008851100088511000885110008B8
:1000D00085110008851100088511000885110008A8
:1000E0008511000885110008851100088511000898
:1000F0008511000885110008851100088511000888
:100100008511000885110008851100088511000877
:100110008511000885110008851100088511000867
:100120008511000885110008851100088511000857
:100130008511000800000000000000008511000883
:100140008511000885110008851100088511000837
:100150008511000885110008851100088511000827
:100160008511000885110008851100088511000817
:100170008511000885110008000000000000000043
:0801800085110008851100083B
:1001900010B5054C237833B9044B13B10448AFF3C1
:1001A00000800123237010BD6400002000000000C7
:1001B000A03C000808B5034B1BB103490348AFF34B
:1001C000008008BD0000000068000020A03C00087E
:1001D000034613F8012B002AFBD1181A0138704787
:1001E00001F0FF01102A2BDB10F0070F08D010F8E8
:1001F000013B013A8B422DD010F0070F42B3F6D1EC
:10020000F0B441EA012141EA014122F007047FF004
:1002100000070023F0E80256083C85EA010586EA5B
:10022000010685FA47F5A3FA87F586FA47F6A5FA97
:1002300087F68EB9EED1F0BC01F0FF0102F00702A3
:1002400032B110F8013B013A83EA010313B1F8D14E
:100250000020704701387047002D06BF354603382F
:10026000073815F0010F07D1013015F4807F02BF68
:10027000013015F4C03F0130F0BC0138704700BFB9
:1002800053B94AB9002908BF00281CBF4FF0FF31FD
:100290004FF0FF3000F06AB9ADF1080C6DE904CE03
:1002A00000F006F8DDF804E0DDE9022304B0704751
:1002B0002DE9F047089D0C46002B4ED194468C4505
:1002C0008646B2FA82F262D94AB1C2F12003914065
:1002D00020FA03F30CFA02FC194300FA02FE4FEA7B
:1002E0001C471FFA8CF6B1FBF7F44FEA1E4307FBDD
:1002F000141143EA014304FB06F199420AD91CEBAD
:10030000030304F1FF3080F01281994240F20F8123
:10031000023C6344591A1FFA8EF3B1FBF7F007FB56
:10032000101143EA014300FB06F69E420AD91CEB7A
:10033000030300F1FF3180F0FC809E4240F2F9801F
:10034000634402389B1B40EA044000211DB1D340A6
:100350000022C5E90032BDE8F0878B4205D90DB116
:10036000C5E9000100210846F5E7B3FA83F1002949
:1003700046D1A34202D39042C0F0F080861A64EBCB
:1003800003030120002DE6D0C5E90063E3E7002A5E
:1003900040F09080A1EB0C044FEA1C481FFA8CF748
:1003A0000121B4FBF8F64FEA1E4308FB164443EA6A
:1003B000044307FB06F0984208D91CEB030306F13F
:1003C000FF3402D2984200F2CD8026461C1A1FFA52
:1003D0008EF3B4FBF8F008FB104443EA044300FB3F
:1003E00007F79F4208D91CEB030300F1FF3402D248
:1003F0009F4200F2B0802046DB1B40EA0640A5E7A2
:10040000C1F120068B4022FA06F71F4320FA06FCB2
:1004100004FA01F343EA0C03F44000FA01F8380C43
:100420004FEA1349B4FBF0FE1FFA87FC00FB1E44A1
:1004300049EA04440EFB0CF9A14502FA01F20AD97B
:100440003C190EF1FF3A80F08480A14540F2818092
:10045000AEF1020E3C44A4EB09041FFA83F9B4FB8D
:10046000F0F300FB134449EA044403FB0CFCA445ED
:1004700007D93C1903F1FF3067D2A44565D9023B87
:100480003C4443EA0E40A0FB0293A4EB0C049C42C4
:10049000CE469C4651D34ED055B1B8EB0E0364EB1B
:1004A0000C0404FA06F6CB401E43CC40C5E90064B8
:1004B000002150E7C2F1200320FA03F10CFA02FCFC
:1004C00024FA03F394400C434FEA1C4800FA02FE5E
:1004D0001FFA8CF7B3FBF8F008FB1031230C43EA4A
:1004E000014300FB07F1994208D91CEB030300F11B
:1004F000FF362CD299422AD9023863445B1AA4B23F
:10050000B3FBF8F108FB113344EA034401FB07F3A2
:10051000A34208D91CEB040401F1FF3613D2A34215
:1005200011D902396444E41A41EA004139E704462A
:10053000F0E6084606E7C845AED2B9EB020E63EB1B
:10054000070C0138A8E73146EDE7034699E7304646
:10055000D4E7D6467FE7634402384DE70646234694
:1005600008460FE7023E634430E700BF704700BF14
:1005700080B400AF044BDB681B0A03F00703184686
:10058000BD465DF8047B704700ED00E080B483B0A9
:1005900000AF0346FB7197F90730002B0BDBFB79AB
:1005A00003F01F02074997F907305B09012000FAA1
:1005B00002F241F8232000BF0C37BD465DF8047BF2
:1005C000704700BF00E100E080B483B000AF034695
:1005D0003960FB7197F90730002B0ADB3B68DAB210
:1005E0000C4997F907301201D2B20B4483F800236B
:1005F0000AE03B68DAB20849FB7903F00F03043BD9
:100600001201D2B20B441A7600BF0C37BD465DF81A
:10061000047B704700E100E000ED00E080B489B0A9
:1006200000AFF860B9607A60FB6803F00703FB6114
:10063000FB69C3F10703042B28BF0423BB61FB69DB
:100640000433062B02D9FB69033B00E000237B61E6
:100650004FF0FF32BB6902FA03F3DA43BB681A407A
:100660007B699A404FF0FF317B6901FA03F3D9436C
:100670007B680B40134318462437BD465DF8047B66
:100680007047000080B400AF054B1B68044A43F478
:100690008033136000BFBD465DF8047B704700BF28
:1006A0000038024080B400AF074B1B6803F40033EE
:1006B000B3F5003F0CBF01230023DBB21846BD4653
:1006C0005DF8047B704700BF0038024080B483B0FF
:1006D00000AF7860064B9B6823F0030204497B68F7
:1006E00013438B6000BF0C37BD465DF8047B704739
:1006F0000038024080B400AF044B9B6803F00C0349
:100700001846BD465DF8047B704700BF00380240C4
:1007100080B483B000AF7860064B9B6823F0F00292
:1007200004497B6813438B6000BF0C37BD465DF8FE
:10073000047B70470038024080B483B000AF78601B
:10074000064B9B6823F4E05204497B6813438B609B
:1007500000BF0C37BD465DF8047B7047003802408F
:1007600080B483B000AF7860064B9B6823F460428E
:1007700004497B6813438B6000BF0C37BD465DF8AE
:10078000047B70470038024080B400AF054B1B6803
:10079000044A43F08073136000BFBD465DF8047BDC
:1007A000704700BF0038024080B400AF074B1B68A1
:1007B00003F00073B3F1007F0CBF01230023DBB211
:1007C0001846BD465DF8047B704700BF0038024004
:1007D00080B485B000AFF860B9607A603B600D4BC3
:1007E0005A680D4B1340F968BA6811437A68920150
:1007F0000A43084913434B60064B5B6823F44032BD
:1008000004493B6813434B6000BF1437BD465DF895
:10081000047B7047003802400080BFFF80B485B081
:1008200000AF7860084B1A6B07497B6813430B6372
:10083000054B1A6B7B681340FB60FB6800BF1437E5
:10084000BD465DF8047B70470038024080B483B039
:1008500000AF7860064B1B6823F0070204497B68F1
:1008600013430B6000BF0C37BD465DF8047B704737
:10087000003C024080B400AF044B1B6803F0070348
:100880001846BD465DF8047B704700BF003C02403F
:1008900080B483B000AF7860064B1B6823F48042BD
:1008A00004497B6813430B6000BF0C37BD465DF8FD
:1008B000047B70470070004080B400AF074B5B685A
:1008C00003F48043B3F5804F0CBF01230023DBB258
:1008D0001846BD465DF8047B704700BF00700040BD
:1008E00080B483B000AF786039607B683A689A6101
:1008F00000BF0C37BD465DF8047B704780B483B001
:1009000000AF786039603B681A047B689A6100BF69
:100910000C37BD465DF8047B704780B485B000AFEE
:10092000786039607B685B69FB60FA683B681340FC
:100930001A04FB68D9433B680B401A437B689A61F1
:1009400000BF1437BD465DF8047B704780B500AF2B
:1009500000F01AFC00F002F900F07AF900F04EF90C
:10096000724B00221A7020217148FFF7B9FF6F48BF
:1009700001F032FD0346012B0BD16E496E4802F0A7
:10098000F7FC4FF47A7332226B496C4800F074FF25
:100990000AE06B49684802F0EBFC4FF47A733222AC
:1009A0006549664800F068FFFFF7E2FD0346002254
:1009B0000F211846FFF732FE034619461320FFF7B2
:1009C00003FEFFF7D5FD034600220F211846FFF76F
:1009D00025FE034619461420FFF7F6FD1420FFF705
:1009E000D5FD1320FFF7D2FD504B00221A754F4A58
:1009F000537D43F0020353754C4A537D43F0080383
:100A000053754A4A537D6FF382035375474A537DAA
:100A10006FF304135375454A537D6FF30003537509
:100A2000424A537D6FF345135375404801F03CFD36
:100A30000346012B0FD143493F4802F099FC3E4841
:100A4000FFF7C6FB03469AB24FF47A733A493B4824
:100A500000F012FF0EE03C49374802F089FC3648AE
:100A6000FFF7B6FB03469AB24FF47A733249334824
:100A700000F002FF354B01221A62344B00225A610A
:100A8000324B00221A61314B00221A602F4B002298
:100A90005A602E4B00229A602C4B0022DA602B4BBE
:100AA00000229A61294B0122DA6128491F4801F08E
:100AB00095FE03211D4802F0DFF91C4801F09AFF62
:100AC0000346012B0FD122491B4802F051FC1A4862
:100AD000FFF77EFB03469AB24FF47A731649174824
:100AE00000F0CAFE0EE01B49134802F041FC124818
:100AF000FFF76EFB03469AB24FF47A730E490F4824
:100B000000F0BAFE144B87221A60134B08221A61B8
:100B1000114B0022DA60104B00229A600E4B00222B
:100B20001A7500F0D7F800BFFDE700BFC80000202D
:100B300000080240B83C0008480100208000002066
:100B4000D43C0008F83C0008143D0008E4000020F4
:100B5000383D0008483D00080C01002080B500AF7A
:100B60000120FFF773FE00BFFFF784FE0346012B51
:100B7000FAD14FF48040FFF78BFEFFF783FD00BFF3
:100B8000FFF790FD0346012BFAD14FF48033C022CA
:100B900004214FF48000FFF71BFEFFF7F5FD00BFB7
:100BA000FFF702FE0346012BFAD100BFFFF784FED8
:100BB0000346002BFAD08020FFF7AAFD4FF48050A7
:100BC000FFF7BAFD0020FFF7CBFD0220FFF77EFD07
:100BD00000BFFFF78FFD0346082BFAD1064801F04E
:100BE000D3FB0F2000F0F2FA0346002B01D000F0F7
:100BF0008BF900BF80BD00BF006CDC0280B500AF88
:100C0000114B124A1A60104B4FF4E1325A600E4BEE
:100C100000229A600C4B0022DA600B4B00221A6112
:100C2000094B0C225A61084B00229A61064B0022A4
:100C3000DA61054800F0D0FD0346002B01D000F03A
:100C400063F900BF80BD00BF800000200044004069
:100C500080B586B000AF3B4600221A605A609A60A9
:100C6000DA601A615A618020FFF7D8FD0120FFF792
:100C7000D5FD0420FFF7D2FD02211448FFF73EFE08
:100C800020211348FFF73AFE02233B6001237B60DB
:100C90000023BB600023FB6000233B613B461946F9
:100CA0000A4801F0F0FA20233B6001237B60002317
:100CB000BB600023FB6000233B613B4619460448B0
:100CC00001F0E1FA00BF1837BD4680BD00000240C8
:100CD0000008024080B500AF0C4B0D4A0D490E488C
:100CE00001F0D2FE0346002B0ED10C490C4802F055
:100CF0003FFB0B48FFF76CFA03469AB24FF47A7346
:100D00000749084800F0B8FD00BF80BD90010020F1
:100D10000C01002000000020C8000020703D0008E9
:100D2000480100208000002080B582B000AF7860CC
:100D300009490A4802F01CFB0848FFF749FA034634
:100D40009AB24FF47A730549054800F095FD00BF4B
:100D50000837BD4680BD00BF883D0008480100201F
:100D60008000002080B582B000AF786009490A4851
:100D700002F0FEFA0848FFF72BFA03469AB24FF446
:100D80007A730549054800F077FD00BF0837BD4676
:100D900080BD00BFA43D0008480100208000002065
:100DA00080B582B000AF786009490A4802F0E0FAE5
:100DB0000848FFF70DFA03469AB24FF47A730549D3
:100DC000054800F059FD00BF0837BD4680BD00BF93
:100DD000C03D0008480100208000002080B584B09C
:100DE00000AF786000232E4A2E492F4801F022FFE1
:100DF0000346012B0FD12D492D4802F0B9FA2C489A
:100E0000FFF7E6F903469AB24FF47A732849294866
:100E100000F032FD40E0284B284A2149224801F0E9
:100E200033FE0346012B0ED12549214802F0A0FADA
:100E30001F48FFF7CDF903469AB24FF47A731C4965
:100E40001C4800F019FD0023FB600DE01848FFF777
:100E5000BFF903469AB24FF47A731549154800F06A
:100E60000BFDFB680133FB600E4B1A69FB689A426D
:100E7000ECD814490E4802F07BFA0D48FFF7A8F9A8
:100E800003469AB24FF47A7309490A4800F0F4FC19
:100E900020210D48FFF741FD00BF1037BD4680BD42
:100EA0004001002024010020C8000020603D00080F
:100EB0004801002080000020900100200C0100204B
:100EC000DC3D0008003E00080008024080B582B00A
:100ED00000AF786009490A4802F04AFA0848FFF76B
:100EE00077F903469AB24FF47A730549054800F042
:100EF000C3FC00BF0837BD4680BD00BF183E0008D8
:100F0000480100208000002080B400AF72B600BF0E
:100F100000BFFDE780B483B000AF00237B60104BBF
:100F20005B6C0F4A43F4804353640D4B5B6C03F4DA
:100F300080437B607B6800233B60094B1B6C084A45
:100F400043F080531364064B1B6C03F080533B60EB
:100F50003B6800BF0C37BD465DF8047B704700BF9F
:100F60000038024080B58AB000AF786007F1140302
:100F700000221A605A609A60DA601A617B681B6806
:100F8000194A93422BD100233B61184B1B6C174A23
:100F900043F400331364154B1B6C03F400333B61C3
:100FA0003B690023FB60114B1B6B104A43F00103AC
:100FB00013630E4B1B6B03F00103FB60FB680C23F8
:100FC0007B610223BB610023FB6103233B62072398
:100FD0007B6207F114031946054800F02DFA00BFA3
:100FE0002837BD4680BD00BF0044004000380240A5
:100FF0000000024080B400AF00BFFDE780B400AF46
:1010000000BFFDE780B400AF00BFFDE780B400AFD4
:1010100000BFFDE780B400AF00BFFDE780B400AFC4
:1010200000BFBD465DF8047B704780B400AF00BFD1
:10103000BD465DF8047B704780B400AF00BFBD467D
:101040005DF8047B704780B500AF00F0EFF800BF9B
:1010500080BD000080B500AF024801F081FF00BFF5
:1010600080BD00BFC800002080B500AF024801F07D
:1010700077FF00BF80BD00BFC800002080B500AF73
:10108000024801F06DFF00BF80BD00BFC800002016
:1010900080B500AF024801F063FF00BF80BD00BF14
:1010A000C800002080B586B000AF7860144A154BA8
:1010B000D31A7B617B693B61134B1B68002B02D108
:1010C000114B124A1A60104B1A687B6813443A6934
:1010D0009A4207D202F06CF903460C221A604FF0D4
:1010E000FF3309E0084B1B68FB60074B1A687B68FD
:1010F0001344054A1360FB6818461837BD4680BD87
:10110000000002200004000094010020E8020020FA
:1011100080B400AF064BD3F88830054A43F470031F
:10112000C2F8883000BFBD465DF8047B704700BF41
:1011300000ED00E0DFF834D0FFF7EAFF0C480D497E
:101140000D4A002302E0D458C4500433C4188C4222
:10115000F9D30A4A0A4C002301E013600432A24288
:10116000FBD302F02BF9FFF7F1FB704700000220E0
:101170000000002064000020703E00086400002091
:10118000E8020020FEE7000080B500AF0E4B1B68B0
:101190000D4A43F4007313600B4B1B680A4A43F477
:1011A00080631360084B1B68074A43F48073136025
:1011B000032000F00DF90F2000F008F8FFF7AAFE59
:1011C0000023184680BD00BF003C024080B582B0BD
:1011D00000AF7860124B1A68124B1B7819464FF417
:1011E0007A73B3FBF1F3B2FBF3F3184600F017F98F
:1011F0000346002B01D001230EE07B680F2B0AD899
:10120000002279684FF0FF3000F0EDF8064A7B6865
:101210001360002300E0012318460837BD4680BD57
:1012200008000020100000200C00002080B400AF57
:10123000064B1B781A46064B1B681344044A13607E
:1012400000BFBD465DF8047B704700BF1000002062
:101250009801002080B400AF034B1B681846BD46C0
:101260005DF8047B704700BF9801002080B485B012
:1012700000AF78607B6803F00703FB600C4BDB6812
:10128000BB60BA684FF6FF031340BB60FB681A02ED
:10129000BB68134343F0BF6343F40033BB60044AAD
:1012A000BB68D36000BF1437BD465DF8047B704750
:1012B00000ED00E080B400AF044BDB681B0A03F0D4
:1012C00007031846BD465DF8047B704700ED00E05B
:1012D00080B483B000AF03463960FB7197F90730E3
:1012E000002B0ADB3B68DAB20C4997F90730120190
:1012F000D2B20B4483F800230AE03B68DAB2084913
:10130000FB7903F00F03043B1201D2B20B441A76AF
:1013100000BF0C37BD465DF8047B704700E100E07C
:1013200000ED00E080B489B000AFF860B9607A6089
:10133000FB6803F00703FB61FB69C3F10703042BA0
:1013400028BF0423BB61FB690433062B02D9FB6968
:10135000033B00E000237B614FF0FF32BB6902FAE0
:1013600003F3DA43BB681A407B699A404FF0FF31C0
:101370007B6901FA03F3D9437B680B40134318469A
:101380002437BD465DF8047B7047000080B582B00D
:1013900000AF78607B68013BB3F1807F01D301230C
:1013A0000FE00A4A7B68013B53600F214FF0FF308A
:1013B000FFF78EFF054B00229A60044B07221A604C
:1013C000002318460837BD4680BD00BF10E000E08E
:1013D00080B582B000AF78607868FFF747FF00BF44
:1013E0000837BD4680BD80B586B000AF0346B96002
:1013F0007A60FB7300237B61FFF75CFF78617A689A
:10140000B9687869FFF78EFF024697F90F301146E9
:101410001846FFF75DFF00BF1837BD4680BD80B599
:1014200082B000AF78607868FFF7B0FF03461846D7
:101430000837BD4680BD000080B489B000AF786039
:10144000396000237B6100233B610023BB610023E3
:10145000FB616BE10122FB6902FA03F37B613B68EC
:101460001B687A6913403B613A697B699A4240F094
:101470005A813B685B6803F00303012B05D03B688E
:101480005B6803F00303022B30D17B689B68BB6170
:10149000FB695B00032202FA03F3DB43BA691340E2
:1014A000BB613B68DA68FB695B0002FA03F3BA6967
:1014B0001343BB617B68BA699A607B685B68BB61F8
:1014C0000122FB6902FA03F3DB43BA691340BB61F3
:1014D0003B685B681B0903F00102FB6902FA03F336
:1014E000BA691343BB617B68BA695A603B685B6841
:1014F00003F00303032B17D07B68DB68BB61FB6938
:101500005B00032202FA03F3DB43BA691340BB61B9
:101510003B689A68FB695B0002FA03F3BA691343FC
:10152000BB617B68BA69DA603B685B6803F0030300
:10153000022B23D1FB69DA087B68083253F822308A
:10154000BB61FB6903F007039B000F2202FA03F360
:10155000DB43BA691340BB613B681A69FB6903F05E
:1015600007039B0002FA03F3BA691343BB61FB69EB
:10157000DA087B680832B96943F822107B681B6877
:10158000BB61FB695B00032202FA03F3DB43BA6928
:101590001340BB613B685B6803F00302FB695B00BF
:1015A00002FA03F3BA691343BB617B68BA691A6034
:1015B0003B685B6803F44033002B00F0B4800023E9
:1015C000FB60604B5B6C5F4A43F4804353645D4B4C
:1015D0005B6C03F48043FB60FB685B4AFB699B0820
:1015E000023352F82330BB61FB6903F003039B0015
:1015F0000F2202FA03F3DB43BA691340BB617B6835
:10160000524A93422BD07B68514A934225D07B6843
:10161000504A93421FD07B684F4A934219D07B684F
:101620004E4A934213D07B684D4A93420DD07B685B
:101630004C4A934207D07B684B4A934201D107231F
:101640000EE008230CE006230AE0052308E004234B
:1016500006E0032304E0022302E0012300E000236C
:10166000FA6902F0030292009340BA691343BB6126
:101670003549FB699B080233BA6941F823203B4B8B
:101680009B68BB613B69DB43BA691340BB613B6844
:101690005B6803F48013002B03D0BA693B691343E2
:1016A000BB61324ABB699360304BDB68BB613B690D
:1016B000DB43BA691340BB613B685B6803F400130A
:1016C000002B03D0BA693B691343BB61274ABB694E
:1016D000D360264B5B68BB613B69DB43BA6913404F
:1016E000BB613B685B6803F40033002B03D0BA692D
:1016F0003B691343BB611D4ABB6953601B4B1B68AD
:10170000BB613B69DB43BA691340BB613B685B6803
:1017100003F48033002B03D0BA693B691343BB61E8
:10172000124ABB691360FB690133FB61FB690F2B34
:101730007FF690AE00BF00BF2437BD465DF8047B46
:10174000704700BF003802400038014000000240EE
:101750000004024000080240000C02400010024059
:101760000014024000180240001C0240003C0140EE
:1017700080B400AF034B1B681846BD465DF8047B80
:10178000704700BF0800002080B500AFFFF7F0FFF2
:101790000246054B9B689B0A03F007030349CB5C99
:1017A00022FA03F3184680BD00380240243E0008A8
:1017B00080B500AFFFF7DCFF0246054B9B685B0B73
:1017C00003F007030349CB5C22FA03F3184680BDFC
:1017D00000380240243E000880B582B000AF786037
:1017E0007B68002B01D1012342E07B6893F84130F4
:1017F000DBB2002B06D17B68002283F8402078689A
:10180000FFF7B0FB7B68242283F841207B681B68CC
:10181000DA687B681B6822F40052DA60786800F0AE
:1018200073F97B681B681A697B681B6822F4904215
:101830001A617B681B685A697B681B6822F02A0260
:101840005A617B681B68DA687B681B6842F4005247
:10185000DA607B6800225A647B68202283F841208A
:101860007B68202283F842207B6800225A63002391
:1018700018460837BD4680BD80B58AB002AFF86013
:10188000B9603B601346FB8000237B61FB6893F8E3
:101890004130DBB2202B75D1BB68002B02D0FB8816
:1018A000002B01D101236EE0FB6800225A64FB6823
:1018B000212283F84120FFF7CDFC7861FB68FA888C
:1018C0009A84FB68FA88DA84FB689B68B3F5805FCA
:1018D00008D1FB681B69002B04D10023FB61BB68A6
:1018E000BB6103E0BB68FB610023BB612EE03B688A
:1018F00000937B6900228021F86800F048F80346D5
:10190000002B05D0FB68202283F8412003233AE016
:10191000FB69002B0BD1BB691B881A46FB681B684F
:10192000C2F308025A60BB690233BB6107E0FB697E
:101930001A78FB681B685A60FB690133FB61FB681E
:10194000DB8C9BB2013B9AB2FB68DA84FB68DB8CD0
:101950009BB2002BCBD13B6800937B6900224021D6
:10196000F86800F014F80346002B05D0FB6820222D
:1019700083F84120032306E0FB68202283F84120FE
:10198000002300E0022318462037BD4680BD80B505
:1019900086B000AFF860B9603B601346FB713BE076
:1019A0003B6AB3F1FF3F37D0FFF754FC02463B6878
:1019B000D31A3A6A9A4202D33B6A002B01D103231D
:1019C0003AE0FB681B68DB6803F00403002B23D0BC
:1019D000BB68802B20D0BB68402B1DD0FB681B68E8
:1019E0001B6803F00803082B16D100237B61FB68FA
:1019F0001B681B687B61FB681B685B687B617B699C
:101A0000F86800F01DF8FB6808225A64FB680022A1
:101A100083F8402001230FE0FB681B681A68BB684D
:101A20001340BA689A420CBF01230023DBB21A4666
:101A3000FB799A42B4D0002318461837BD4680BDC2
:101A400080B495B000AF78607B681B680C337B6313
:101A50007B6B53E8003F3B633B6B23F49073FB6469
:101A60007B681B680C33FA6C3A64FB63F96B3A6C65
:101A700041E80023BB63BB6B002BE5D17B681B688F
:101A800014333B623B6A53E8003FFB61FB6923F080
:101A90000103BB647B681B681433BA6CFA62BB62D7
:101AA000B96AFA6A41E800237B627B6A002BE5D1C0
:101AB0007B681B6B012B19D17B681B680C33FB60A7
:101AC000FB6853E8003FBB60BB6823F010037B64F6
:101AD0007B681B680C337A6CBA617B617969BA697F
:101AE00041E800233B613B69002BE5D17B68202264
:101AF00083F842207B6800221A6300BF5437BD463A
:101B00005DF8047B704700002DE9B04FC0B000AF16
:101B1000C7F8F400D7F8F4301B681B6923F4405071
:101B2000D7F8F430D968D7F8F4301A6840EA0103DE
:101B30001361D7F8F4309A68D7F8F4301B691A4368
:101B4000D7F8F4305B691A43D7F8F430DB691343F4
:101B5000C7F8F830D7F8F4301B68DB6823F4164177
:101B600021F00C01D7F8F4301A68D7F8F8300B439D
:101B7000D360D7F8F4301B685B6923F44070D7F862
:101B8000F4309969D7F8F4301A6840EA01035361D8
:101B9000D7F8F4301A688F4B9A4205D0D7F8F43052
:101BA0001A688D4B9A4204D1FFF702FEC7F8FC0079
:101BB00003E0FFF7E9FDC7F8FC00D7F8F430DB6974
:101BC000B3F5004F40F00C81D7F8FC300022C7F885
:101BD000E830C7F8EC20D7E93A4522462B46911861
:101BE000B9655B41FB65D7E91623214612EB010875
:101BF000294643EB01094FF000024FF000034FEA82
:101C0000C90343EA58734FEAC802904699462346EF
:101C100018EB0303C7F8E0302B4649EB0303C7F882
:101C2000E430D7F8F4305B680022C7F8D830C7F842
:101C3000DC20D7E936120B46DB183B65134642EB36
:101C400003037B65D7E91423D7E93801FEF718FBB6
:101C500002460B46614BA3FB02235B091C01D7F82C
:101C6000FC300022C7F8D030C7F8D420D7E9348937
:101C700042464B469118B9645B41FB64D7E9122395
:101C8000414612EB010A494643EB010B4FF00002BB
:101C90004FF000034FEACB0343EA5A734FEACA02FC
:101CA00092469B4643461AEB0303C7F8C8304B469F
:101CB0004BEB0303C7F8CC30D7F8F4305B68002255
:101CC000C7F8C030C7F8C420D7E930120B46DB187C
:101CD0003B64134642EB03037B64D7E91023D7E947
:101CE0003201FEF7CDFA02460B4611463B4BA3FBF1
:101CF00001235B09642202FB03F3CB1ADB0003F12F
:101D00003202364BA3FB02235B095B0003F4F8733A
:101D10001C44D7F8FC300022C7F8B830C7F8BC2004
:101D2000D7E92E8942464B469118B9635B41FB6364
:101D3000D7E90E2341465118396349464B417B632D
:101D40004FF000024FF00003D7E90CAB5946CB002F
:101D5000514643EA51735146CA001046194603469C
:101D600042469B18C7F8B0304B460A4642EB030385
:101D7000C7F8B430D7F8F4305B680022C7F8A83051
:101D8000C7F8AC20D7E92A120B46DB18BB62134612
:101D900042EB0303FB62D7E90A23D7E92C01FEF7E4
:101DA0006FFA02460B460D4BA3FB02135B0964213D
:101DB00001FB03F3D31ADB003233084AA2FB0323EF
:101DC0005B0903F00702D7F8F4301B6822449A60DD
:101DD00006E100BF00100140001401401F85EB51D7
:101DE000D7F8FC300022C7F8A030C7F8A420D7E904
:101DF000288942464B46911839625B417B62D7E99C
:101E0000082341465418494643EB01054FF00002B0
:101E10004FF00003EB0043EA5473E20014461D4602
:101E20004346E318C7F898304B4645EB0303C7F821
:101E30009C30D7F8F4305B680022C7F89030C7F8C0
:101E400094204FF000024FF00003D7E924452946C3
:101E50008B00214643EA917321468A00D7E9260187
:101E6000FEF70EFA02460B46604BA3FB02235B090A
:101E70001C01D7F8FC300022C7F88830C7F88C2046
:101E8000D7E9228942464B469118B9615B41FB6113
:101E9000D7E9062341465118396149464B417B61D8
:101EA0004FF000024FF00003D7E904AB5946CB00D6
:101EB000514643EA51735146CA001046194603463B
:101EC00042469B18C7F880304B460A4642EB030354
:101ED000C7F88430D7F8F4305B680022BB67FA6734
:101EE0004FF000024FF00003D7E91E8949468B00EE
:101EF000414643EA917341468A00D7E92001FEF743
:101F0000BFF902460B461146384BA3FB01235B0980
:101F1000642202FB03F3CB1A1B013233334AA2FBC8
:101F200003235B0903F0F0031C44D7F8FC300022C4
:101F30003B677A67D7E91C8942464B469118B960DE
:101F40005B41FB60D7E9022341465118396049469D
:101F50004B417B604FF000024FF00003D7E900AB2C
:101F60005946CB00514643EA51735146CA001046C8
:101F70001946034642469B18BB664B460A4642EB4F
:101F80000303FB66D7F8F4305B6800223B667A6691
:101F90004FF000024FF00003D7E9188949468B0043
:101FA000414643EA917341468A00D7E91A01FEF798
:101FB00067F902460B460D4BA3FB02135B09642134
:101FC00001FB03F3D31A1B013233084AA2FB03239C
:101FD0005B0903F00F02D7F8F4301B6822449A60C3
:101FE00000BF07F58077BD46BDE8B08F1F85EB5178
:101FF00080B48BB000AFF860B9607A60FB681A6893
:10200000BB687B617B6993FAA3F33B613B69BB616E
:10201000BB69002B01D1202303E0BB69B3FA83F332
:10202000DBB25B00032101FA03F3DB431A40BB6818
:102030003B623B6A93FAA3F3FB61FB697B627B6AB9
:10204000002B01D1202303E07B6AB3FA83F3DBB2D8
:102050005B00796801FA03F31A43FB681A6000BF5A
:102060002C37BD465DF8047B704780B485B000AF67
:10207000F860B9607A60FB685A68BB68DB431A4055
:10208000BB68796801FB03F31A43FB685A6000BF21
:102090001437BD465DF8047B704780B48BB000AF49
:1020A000F860B9607A60FB689A68BB687B617B699D
:1020B00093FAA3F33B613B69BB61BB69002B01D180
:1020C000202303E0BB69B3FA83F3DBB25B00032197
:1020D00001FA03F3DB431A40BB683B623B6A93FAA5
:1020E000A3F3FB61FB697B627B6A002B01D1202398
:1020F00003E07B6AB3FA83F3DBB25B00796801FA31
:1021000003F31A43FB689A6000BF2C37BD465DF8A5
:10211000047B704780B48BB000AFF860B9607A6020
:10212000FB68DA68BB687B617B6993FAA3F33B6168
:102130003B69BB61BB69002B01D1202303E0BB6974
:10214000B3FA83F3DBB25B00032101FA03F3DB4351
:102150001A40BB683B623B6A93FAA3F3FB61FB69DD
:102160007B627B6A002B01D1202303E07B6AB3FAF8
:1021700083F3DBB25B00796801FA03F31A43FB686F
:10218000DA6000BF2C37BD465DF8047B704780B431
:102190008BB000AFF860B9607A60FB681A6ABB6800
:1021A0007B617B6993FAA3F33B613B69BB61BB69CC
:1021B000002B01D1202303E0BB69B3FA83F3DBB228
:1021C0009B000F2101FA03F3DB431A40BB683B621B
:1021D0003B6A93FAA3F3FB61FB697B627B6A002B8A
:1021E00001D1202303E07B6AB3FA83F3DBB29B00C7
:1021F000796801FA03F31A43FB681A6200BF2C37AF
:10220000BD465DF8047B704780B48BB000AFF860CA
:10221000B9607A60FB685A6ABB681B0A7B617B699C
:1022200093FAA3F33B613B69BB61BB69002B01D10E
:10223000202303E0BB69B3FA83F3DBB29B000F21D9
:1022400001FA03F3DB431A40BB681B0A3B623B6A9B
:1022500093FAA3F3FB61FB697B627B6A002B01D1DC
:10226000202303E07B6AB3FA83F3DBB29B00796837
:1022700001FA03F31A43FB685A6200BF2C37BD46CC
:102280005DF8047B704780B58AB000AF7860396034
:1022900000237B6200233B623B681B68BB61BB6918
:1022A00093FAA3F37B617B69FB61FB69002B01D18E
:1022B000202303E0FB69B3FA83F3DBB27B6257E0D0
:1022C0003B681A6801217B6A01FA03F313403B6201
:1022D0003B6A002B49D03B685B68012B03D03B680D
:1022E0005B68022B0DD13B689B681A46396A786897
:1022F000FFF7D3FE3B68DB681A46396A7868FFF758
:10230000B4FE3B681B691A46396A7868FFF702FF1A
:102310003B685B68022B21D13B6AFB60FB6893FA48
:10232000A3F3BB60BB683B613B69002B01D1202359
:1023300003E03B69B3FA83F3DBB2072B07D83B68B2
:102340005B691A46396A7868FFF721FF06E03B6847
:102350005B691A46396A7868FFF756FF3B685B6825
:102360001A46396A7868FFF743FE7B6A01337B625D
:102370003B681A687B6A22FA03F3002BA0D1002382
:1023800018462837BD4680BD80B483B000AF786062
:10239000044A7B68136000BF0C37BD465DF8047BC0
:1023A000704700BF0800002080B485B000AF78609F
:1023B000084B1A6B07497B6813430B63054B1A6B79
:1023C0007B681340FB60FB6800BF1437BD465DF8B7
:1023D000047B70470038024080B58AB000AF786057
:1023E000012387F8273007F10C0300221A605A6096
:1023F0009A60DA601A615A617B681B78002B06D1FB
:10240000274B1B6C264A43F00073136405E0244BF2
:102410001B6C234A43F0806313640220FFF7C4FF60
:102420007B681B78002B16D14FF44073FB600223AE
:102430003B6103237B610023BB610023FB61092314
:102440003B6207F10C0319461648FFF71CFF0023F7
:1024500087F827301DE07B681B78012B16D14FF4DD
:102460004053FB6002233B6103237B610023BB617C
:102470000023FB6109233B6207F10C03194609485D
:10248000FFF701FF002387F8273002E0012387F8D8
:10249000273097F8273018462837BD4680BD00BF43
:1024A000003802400004024080B584B000AF78607C
:1024B0000123FB7332237B730023BB737B681B7880
:1024C000002B05D1924B934A1A600023FB7308E05E
:1024D0007B681B78012B04D18D4B8F4A1A60002337
:1024E000FB738B4B1B681A68894B1B6842F0010217
:1024F0001A6002E0BB7B0133BB73854B1B685B68D2
:1025000003F00103002B03D1BA7B7B7B9A42F1D30A
:10251000BA7B7B7B9A4201D9012358E10023BB732C
:102520007B4B1B681A687A4B1B6822F002021A6008
:1025300002E0BB7B0133BB73754B1B685B6803F028
:102540000203002B03D1BA7B7B7B9A42F1D3BA7B87
:102550007B7B9A4201D9012339E17B681B7D032BE8
:102560002CD801A252F823F079250008872500080D
:1025700099250008AB250008654B1A68644B1B6859
:10258000D269DA611AE0624B1B68DA69604B1B683A
:1025900042F08042DA6111E05D4B1B68DA695C4B06
:1025A0001B6842F00042DA6108E0594B1B68DA69A7
:1025B000574B1B6842F04042DA6100BF544B1B6826
:1025C000DA69534B1B6802F07042DA6100F092FE48
:1025D0000346524A934236D0504A934241D8504A19
:1025E000934223D04E4A93423BD84E4A934203D063
:1025F0004D4A93420DD034E07B6800229A607B689C
:1026000001225A607B680522DA607B6800221A6129
:1026100028E07B6800229A607B6801225A607B6810
:102620000C22DA607B6801221A611BE07B680022C1
:102630009A607B6802225A607B680922DA607B68B4
:1026400000221A610EE07B6800229A607B680322F8
:102650005A607B680C22DA607B6801221A6101E013
:10266000FFE7FDE72A4B1B68D9697B689B681A0660
:102670007B685B68013B1A437B68DB681B041A4379
:102680007B681B691B051A43214B1B680A43DA61EF
:102690007B685B7D03F00403DBB2002B08D01C4B8E
:1026A0001B681A681A4B1B6842F020021A6007E088
:1026B000174B1B681A68164B1B6822F020021A6021
:1026C0007B685B7D03F00803DBB2002B08D1104B65
:1026D0001B681A680E4B1B6842F010021A6007E074
:1026E0000B4B1B681A680A4B1B6822F010021A6019
:1026F0007B685B7D03F01003DBB2002B16D0044B2C
:102700001B681A68024B1B6842F008021A6015E049
:102710009C010020006400400068004000366E010B
:10272000001BB70000093D0000127A002A4B1B680D
:102730001A68294B1B6822F008021A607B685B7DCF
:1027400003F00103DBB2002B08D0234B1B681A688F
:10275000214B1B6842F080021A6007E01E4B1B6889
:102760001A681D4B1B6822F080021A607B685B7D33
:1027700003F02003DBB2002B08D0174B1B681A684C
:10278000154B1B6842F004021A6007E0124B1B68ED
:102790001A68114B1B6822F004021A607B685B7D8B
:1027A00003F00203DBB2002B08D00B4B1B681A6846
:1027B000094B1B6842F040021A6007E0064B1B6899
:1027C0001A68054B1B6822F040021A60FB7B184612
:1027D0001037BD4680BD00BF9C01002080B485B08D
:1027E00000AF786039600123FB730023FB737B68C3
:1027F0001B78002B05D17C4B7C4A1A600023FB73AD
:1028000004E0794B7A4A1A600023FB73764B1B680D
:10281000D3F80022744B1B6842F00102C3F8002277
:102820007B681B78002B15D16F4B1B68D3F80022F7
:102830006D4B1B6822F48072C3F800226A4B1B6840
:10284000D3F800123B685B6A1A02674B1B680A43A5
:10285000C3F800223B685B6903F01F03012202FA00
:1028600003F3BB60604B1B68D3F81C12BB68DA43F0
:102870005D4B1B680A40C3F81C223B68DB69002BD8
:1028800027D1594B1B68D3F80C12BB68DA43564B5F
:102890001B680A40C3F80C223B68DB6818043B68DD
:1028A0005B6899B2504B1B683A68526901434832E1
:1028B00043F832103B689B6818043B681B689AB267
:1028C000494B19683B685B6902434833DB000B44A2
:1028D0005A603B68DB69012B26D1434B1B68D3F858
:1028E0000C12414B1B68BA680A43C3F80C223B68C0
:1028F0001B6818043B685B6899B23B4B1B683A68DD
:1029000052690143483243F832103B689B6818040F
:102910003B68DB689AB2344B19683B685B690243D9
:102920004833DB000B445A603B689B69002B0BD19A
:102930002D4B1B68D3F80412BB68DA432A4B1B6883
:102940000A40C3F8042209E0274B1B68D3F804129D
:10295000254B1B68BA680A43C3F804223B681B690D
:10296000002B0BD1204B1B68D3F81412BB68DA4341
:102970001D4B1B680A40C3F8142209E01A4B1B6860
:10298000D3F81412184B1B68BA680A43C3F8142210
:102990003B681B6A012B0AD1134B1B68D3F81C122E
:1029A000114B1B68BA680A43C3F81C220AE00E4B9D
:1029B0001B68D3F81C12BB68DA430B4B1B680A4038
:1029C000C3F81C22084B1B68D3F80022064B1B6877
:1029D00022F00102C3F80022FB7B18461437BD46E3
:1029E0005DF8047B704700BF9C010020006400403C
:1029F0000068004080B485B000AF78600123FB73AD
:102A000032237B730023BB737B681B78002B05D1BB
:102A10001A4B1B4A1A600023FB7308E07B681B7883
:102A2000012B04D1154B174A1A600023FB73134B7B
:102A30001B681A68114B1B6822F001021A6002E041
:102A4000BB7B0133BB730D4B1B685B6803F0010359
:102A5000002B03D0BA7B7B7B9A42F1D3BA7B7B7B82
:102A60009A4202D90123FB7301E00023FB73FB7B35
:102A700018461437BD465DF8047B70479C01002062
:102A8000006400400068004080B586B000AFF86088
:102A9000B9607A603B600123FB75FB681B78002BF3
:102AA00003D1154B154A1A6002E0134B144A1A6001
:102AB000114B1B689B6803F08063002B0DD10E4BFC
:102AC0001B689B6803F40073002B06D10A4B1B683C
:102AD0009B6803F08053002B08D0074B18683B68B5
:102AE0007A68B96800F00EF80023FB75FB7D184684
:102AF0001837BD4680BD00BF9C0100200064004027
:102B00000068004080B487B000AFF860B9607A60B8
:102B10003B60FB689B681B0E03F003037B613B6813
:102B20007A691A607B689B68002B0DD17B681B68F3
:102B30005A057B68DB685B001A43F9687B691833C8
:102B40001B010B441A6010E07B685B68DA007B684D
:102B5000DB685B001A437B689B689B001A43F9683B
:102B60007B6918331B010B441A607B681A69F9688A
:102B70007B6918331B010B4404331A607B681B7D8F
:102B8000012B11D1FA687B6918331B0113440433FC
:102B90001A687B681B7D1B021A43F9687B6918332E
:102BA0001B010B4404331A60BB6807331B781A06F9
:102BB000BB6806331B781B041A43BB6805331B78BC
:102BC0001B021343BA68043212781A43F9687B690E
:102BD0001B010B4403F5C6731A60BB6803331B78F3
:102BE0001A06BB6802331B781B041A43BB68013307
:102BF0001B781B021343BA6812781A43F9687B6981
:102C00001B010B4403F5C4731A60FA687B6918331F
:102C10001B0113441B6843F00102F9687B691833F8
:102C20001B010B441A6000BF1C37BD465DF8047BD6
:102C30007047000080B485B000AFF860B9607A607A
:102C40003B60FB681B78002B03D1884B884A1A60D5
:102C500002E0864B874A1A603B68002B0ED1834BFB
:102C60001B68DB6803F00103002B16D1FB689B692E
:102C700043F40012FB689A610123F1E07B4B1B686F
:102C80001B6903F00103002B07D1FB689B6943F428
:102C90000012FB689A610123E2E0744B1A683B68FA
:102CA0001B331B0113441B689B0803F00102BB6824
:102CB0009A60BB689B68002B0CD16C4B1A683B6810
:102CC0001B331B0113441B685B0DC3F30A02BB6873
:102CD0001A600BE0654B1A683B681B331B011344F9
:102CE0001B68DB0823F06042BB685A605F4B1A68C0
:102CF0003B681B331B0113441B685B0803F0010294
:102D0000BB68DA60594B1A683B681B331B011344DC
:102D100004331B6803F00803002B03D0BB680822B0
:102D20001A610BE0514B1A683B681B331B011344BB
:102D300004331B6803F00F02BB681A614B4B1A681F
:102D40003B681B331B01134404331B681B0ADAB2B4
:102D5000BB689A61454B1A683B681B331B011344DF
:102D600004331B681B0C9AB2BB685A613F4B1A684C
:102D70003B681B01134403F5DC731B68DAB27B6804
:102D80001A703A4B1A683B681B01134403F5DC7355
:102D90001B681A0A7B680133D2B21A70334B1A6867
:102DA0003B681B01134403F5DC731B681A0C7B683A
:102DB0000233D2B21A702D4B1A683B681B011344C0
:102DC00003F5DC731B681A0E7B680333D2B21A70EA
:102DD000264B1A683B681B01134403F5DE731A681F
:102DE0007B680433D2B21A70204B1A683B681B010F
:102DF000134403F5DE731B681A0A7B680533D2B2ED
:102E00001A701A4B1A683B681B01134403F5DE73F2
:102E10001B681A0C7B680633D2B21A70134B1A68FF
:102E20003B681B01134403F5DE731B681A0E7B68B5
:102E30000733D2B21A703B68002B08D10B4B1B68CA
:102E4000DA680A4B1B6842F02002DA6007E0074BA1
:102E50001B681A69054B1B6842F020021A610023A7
:102E600018461437BD465DF8047B70479C0100206E
:102E7000006400400068004080B483B000AF786018
:102E800039607B681B78002B03D10A4B0A4A1A6011
:102E900002E0084B094A1A60064B1B685969054B4A
:102EA0001B683A680A435A6100BF0C37BD465DF89B
:102EB000047B70479C0100200064004000680040D3
:102EC00080B483B000AF786000BF0C37BD465DF8BA
:102ED000047B704780B483B000AF786000BF0C37CC
:102EE000BD465DF8047B704780B483B000AF786066
:102EF00000BF0C37BD465DF8047B704780B483B0DB
:102F000000AF786000BF0C37BD465DF8047B7047AA
:102F100080B483B000AF786000BF0C37BD465DF869
:102F2000047B704780B483B000AF786000BF0C377B
:102F3000BD465DF8047B704780B483B000AF786015
:102F400000BF0C37BD465DF8047B704780B483B08A
:102F500000AF786000BF0C37BD465DF8047B70475A
:102F600080B58AB000AF78607B681B78002B03D1F6
:102F7000514B524A1A6002E04F4B514A1A600023EB
:102F80007B624D4B1B685B693B614B4B1B685B680D
:102F90003B62494B1B689B68FB61474B1B68DB68C6
:102FA000BB61454B1B681B697B61434B1B689B697D
:102FB000FB603B6903F00103002B00F08680FB6996
:102FC00003F00103002B27D03B4B1B689A683A4B58
:102FD0001B6842F001029A60FB6903F00203002BB8
:102FE00003D07868FDF7A0FE16E0FB6903F0040348
:102FF000002B04D07B6A43F400637B620CE0FB6926
:1030000003F00803002B04D07B6A43F480537B62F7
:1030100002E07868FFF754FFFB6903F48073002B2C
:1030200023D0FB6943F48073FB61FB6903F40073F5
:10303000002B03D07868FDF795FE16E0FB6903F4DA
:103040008063002B04D07B6A43F400537B620CE066
:10305000FB6903F40063002B04D07B6A43F48043D4
:103060007B6202E07868FFF735FFFB6903F4803389
:10307000002B2AD0FB6943F48033FB61FB6903F426
:103080000033002B03D07868FDF78AFE1DE0FB6952
:1030900003F48023002B04D07B6A43F400437B625B
:1030A00013E0FB6903F40023002B0BD07B6A43F48D
:1030B00080337B6209E000BF9C0100200064004077
:1030C000006800407868FFF70FFF3B6903F00803D2
:1030D000002B10D0BB6903F01003002B0BD07B6AD0
:1030E00043F400737B62824B1B68DA68804B1B6879
:1030F00022F01002DA603B6903F00403002B0BD0CE
:10310000BB6903F00803002B06D0BB6923F008035A
:10311000BB617868FFF7F2FE3B6903F00203002B06
:1031200007D0BB6903F00303002B02D07868FDF7DA
:1031300055FE3B6903F04003002B0CD07B6903F084
:103140001003002B07D07B6A43F480637B627B69AA
:1031500023F010037B613B6903F02003002B0BD0AD
:103160007B6903F00803002B06D07B6923F008037A
:103170007B617868FFF7D6FE3B6903F01003002BF4
:1031800007D07B6903F00303002B02D07868FFF7B8
:10319000BFFE3B6903F40033002B0BD03B6A03F006
:1031A0001003002B06D03B6A23F010033B627868C3
:1031B000FFF7C2FE3B6903F48033002B0BD03B6A60
:1031C00003F00303002B06D03B6A23F008033B62A5
:1031D0007868FFF7BBFE3B6903F40043002B77D010
:1031E0003B6A03F00403002B6ED03B6903F4807349
:1031F000002B08D0FB6803F00103002B03D07B6A8F
:1032000043F001037B623B6903F40073002B08D099
:10321000FB6803F00203002B03D07B6A43F0020338
:103220007B623B6903F48063002B08D0FB6803F0EA
:103230000403002B03D07B6A43F004037B623B69E9
:1032400003F40063002B3FD0FB6803F01003002B56
:103250003AD0FB6803F07003602B2BD0602B2ED884
:10326000502B22D0502B2AD8402B19D0402B26D8B7
:10327000302B10D0302B22D8102B02D0202B05D091
:103280001DE07B6A43F008037B6219E07B6A43F030
:1032900010037B6214E07B6A43F020037B620FE043
:1032A0007B6A43F040037B620AE07B6A43F0800361
:1032B0007B6205E07B6A43F480737B6200E000BFC1
:1032C000FB6823F07003FB603B6A23F004033B625E
:1032D0007B6A002B08D07B689A697B6A1A437B68FB
:1032E0009A617868FDF7F2FD00BF2837BD4680BDC2
:1032F0009C01002080B483B000AF1B4B9B689B0AED
:1033000003F007037B607B68072B26D801A252F8E5
:1033100023F000BF353300085B3300085B3300083F
:103320005B3300083B330008433300084B3300088D
:10333000533300080D4B1B680FE00C4B1B685B08F8
:103340000BE00A4B1B689B0807E0084B1B68DB0877
:1033500003E0064B1B681B09FFE718460C37BD4608
:103360005DF8047B704700BF003802400800002071
:103370000EB400B59CB01DAB029006906FF00041FA
:10338000094807910491094953F8042B05910068F5
:10339000019302A900F08CF9029B00221A701CB064
:1033A0005DF804EB03B07047140000200802FFFF33
:1033B000014B1868704700BF1400002070B50D4D18
:1033C0000D4C641BA4100026A64209D10B4D0C4CD9
:1033D00000F066FC641BA4100026A64205D170BD57
:1033E00055F8043B98470136EEE755F8043B9847FB
:1033F0000136F2E7683E0008683E0008683E0008B3
:103400006C3E00087047704738B50546002941D02A
:1034100051F8043C0C1F002BB8BFE41800F0E0F892
:103420001D4A136833B9636014602846BDE838400C
:1034300000F0DCB8A34208D9206821188B4201BFF4
:1034400019685B6809182160EDE71A465B680BB1E3
:10345000A342FAD911685018A0420BD12068014448
:10346000501883421160E0D118685B6853600844CB
:103470001060DAE702D90C232B60D6E72068211808
:103480008B4204BF19685B68636004BF0918216040
:103490005460CAE738BD00BFE402002070B50F4E8B
:1034A0000C463168054611B900F0A6FB3060214694
:1034B000284600F0A1FB431C03D14FF0FF34204607
:1034C00070BDC41C24F00304A042F8D0211A284681
:1034D00000F092FB0130F2D1EFE700BFE0020020E4
:1034E0002DE9F843CD1C25F0030508350C2D38BF18
:1034F0000C25002D064601DBA94204D90C233360BC
:103500000020BDE8F883DFF8D48000F069F8D8F82F
:1035100000301C4644BB29463046FFF7BFFF431C22
:10352000044658D1D8F800402746002F43D1002C3C
:103530004BD023683946304604EB030900F05CFBAE
:10354000814542D121686D1A29463046FFF7A6FF12
:1035500001303AD023682B442360D8F800305A68F1
:1035600062BBC8F800700FE02268521B20D40B2AFF
:1035700017D96119A342256018BF5960636808BF55
:10358000C8F8001062514B60304600F02FF804F18B
:103590000B00231D20F00700C21A1CBF1B1AA350EA
:1035A000AFE76268A3420CBFC8F800205A60EBE79F
:1035B00023466468AEE73C467F68B6E71A465B6818
:1035C000A342FBD100235360DEE70C233360304677
:1035D00000F00CF894E70560D6E700BFE402002095
:1035E0000148FFF70FBF00BFDC0200200148FFF7D2
:1035F0000ABF00BFDC0200202DE9F0478E681F469D
:10360000BE420B6882460C4690462DD8B1F90C207C
:1036100012F4906F26D06569096905EB4505A3EBA7
:10362000010905EBD5757B1C4B446D109D4238BFDD
:103630001D46530527D52946FFF752FF064660B3BE
:1036400021694A4600F0E8FAA38923F4906343F025
:103650008003A381266165614E44A5EB09052660C0
:10366000A5603E46BE4200D93E46206832464146ED
:1036700000F0A8FAA3689B1BA3602368334423606F
:103680000020BDE8F0872A4600F0D4FA064600285C
:10369000E0D121695046FFF7B7FE0C23CAF800308D
:1036A000A38943F04003A3814FF0FF30E9E7000016
:1036B0002DE9F04F98468B891B069DB007460D46B5
:1036C000144610D50B6973B94021FFF709FF286034
:1036D000286130B90C233B604FF0FF301DB0BDE8CE
:1036E000F08F40236B610023099320238DF829304C
:1036F000CDF80C803023DFF89C818DF82A304FF014
:10370000010923469A4613F8012B0AB1252AF9D15B
:10371000BAEB040B0BD05B46224629463846FFF72E
:103720006BFF013000F0A780099A5A4409929AF879
:103730000030002B00F09F8000234FF0FF32CDE9D6
:1037400005230AF1010A049307938DF853301A9365
:103750005446052214F8011B4E48FCF741FD049A1B
:10376000D8B9D00644BF20238DF85330110744BF89
:103770002B238DF853309AF800302A2B15D0079A56
:10378000544600204FF00A0C214611F8013B303B13
:10379000092B4BD9B0B1079214E0A0EB080309FA4A
:1037A00003F313430493A246D2E7039B191D1B683E
:1037B0000391002BBBBF5B4242F0020207930793C9
:1037C000B8BF049223782E2B0AD163782A2B32D1EA
:1037D000039B1A1D1B68039243EAE37302340593AB
:1037E000DFF8C0A0217803225046FCF7F9FC38B17D
:1037F000049BA0EB0A00402282401343013404934F
:1038000014F8011B24488DF828100622FCF7E8FC68
:10381000002836D0214B1BBB039B073323F0070343
:1038200008330393099B334409936AE70CFB023284
:103830000C460120A8E700230134059319464FF0F8
:103840000A0C204610F8012B303A092A03D9002B24
:10385000C6D00591C4E70CFB012104460123F0E723
:1038600003AB00932A460E4B04A93846AFF3008001
:10387000421C0646D6D1AB895B063FF52DAF0998B1
:103880002CE703AB00932A46054B04A9384600F009
:1038900079F8EDE72C3E0008363E000800000000F5
:1038A000F9350008323E00082DE9F04716469846E3
:1038B0008A680B69DDF820909342B8BF13463360E5
:1038C00091F8432007460C460AB101333360236860
:1038D000990642BF336802333360256815F0060548
:1038E00006D104F1190AE36832689B1AAB4226DC60
:1038F00094F843302268003B18BF012392062BD472
:1039000004F1430241463846C84701301ED02368BF
:10391000226903F00603042B02BFE5683368ED1A41
:10392000A3680CBF25EAE57500259342C4BF9B1A26
:10393000ED1800261A34B5421AD1002008E0012300
:10394000524641463846C847013003D14FF0FF3058
:10395000BDE8F0870135C6E7E1185A1C302081F830
:103960004300224494F8451082F843100233C7E71D
:103970000123224641463846C8470130E6D0013689
:10398000D9E700002DE9FF470F7E0C9E782F914666
:1039900080460C469A4601F1430207D8622F0AD8A6
:1039A000002F00F0D280582F00F0B98004F14206B9
:1039B00084F842703AE0A7F16303152BF6D801A111
:1039C00051F823F01D3A0008313A0008AD390008DB
:1039D000AD390008AD390008AD390008313A0008AA
:1039E000AD390008AD390008AD390008AD3900081F
:1039F000313B00085B3A0008EB3A0008AD3900089B
:103A0000AD390008533B0008AD3900085B3A0008A7
:103A1000AD390008AD390008F33A000833681A1DC3
:103A20001B68326004F1420684F8423001239DE0B5
:103A300033682068191D3160060601D51D6803E052
:103A40004506FBD5B3F90050002D03DA2D236D4256
:103A500084F8433059480A2311E021683368080686
:103A600053F8045B02D4490648BFADB26F2F5348E8
:103A7000336014BF0A230823002184F843106668CA
:103A8000A660002EA2BF216821F0040121600DB9BB
:103A9000002E4BD01646B5FBF3F103FB1157C75D63
:103AA00006F8017D2F46BB420D46F4D9082B0BD1F9
:103AB0002368DF0708D5236961689942DEBF302398
:103AC00006F8013C06F1FF36921B2261CDF800A0FA
:103AD0004B4603AA21464046FFF7E6FE01304AD195
:103AE0004FF0FF3004B0BDE8F087236843F02003B7
:103AF00023603348782784F84570236831681F06AF
:103B000051F8045B02D45F0648BFADB23160D907FB
:103B100044BF43F0200323601DB11023ACE72748C6
:103B2000E9E7236823F020032360F6E71646BDE7A4
:103B3000336825686169181D30602E061B6801D541
:103B4000196002E06806FBD5198000232361164640
:103B5000BCE733681A1D32601E6862680021304677
:103B6000FCF73EFB08B1801B6060636823610023A3
:103B700084F84330AAE72369324649464046D04795
:103B80000130ADD023689B0713D4E068039B9842B3
:103B9000B8BF1846A6E70123324649464046D047FB
:103BA00001309DD00135E36803995B1AAB42F2DC2A
:103BB000EBE7002504F11906F5E700BF3D3E0008DC
:103BC0004E3E0008884210B501EB020402D984423F
:103BD000234607D8431EA14208D011F8012B03F851
:103BE000012FF8E7024401468A4200D110BD13F8C4
:103BF000014D02F8014DF7E738B5064D00230446A4
:103C000008462B60FDF74EFA431C02D12B6803B126
:103C1000236038BDD80200200A44914200F1FF33EE
:103C200000D1704710B511F8014B03F8014F9142D4
:103C3000F9D110BD2DE9F041804615460C4621B959
:103C4000BDE8F0411146FFF74BBC2AB9FFF7DCFB9A
:103C500000242046BDE8F08100F01AF885420646AF
:103C600002D8B5EB500FF4D829464046FFF738FC90
:103C700007460028ECD0B5422A46214628BF3246E6
:103C8000FFF7CAFF21464046FFF7BEFB3C46E0E790
:103C900051F8043C181F002BBCBF0B58C0187047CC
:103CA000F8B500BFF8BC08BC9E467047F8B500BF29
:083CB000F8BC08BC9E467047F9
:103CB8004750494F20696E697469616C697A61740B
:103CC800696F6E206661696C0A0000004750494FB1
:103CD80020696E697469616C697A6174696F6E20B4
:103CE8007375636365737366756C6C790A0000009D
:103CF80043616E20696E697469616C697A6174697F
:103D08006F6E206661696C0A0000000043414E2016
:103D1800696E697469616C697A6174696F6E207320
:103D280075636365737366756C6C790A00000000CF
:103D380043616E207374617274206661696C0A0055
:103D480043414E20737461727420737563636573A5
:103D58007366756C6C790A005265636569766520CF
:103D68004661696C0A0000005472616E736D697473
:103D7800205375636365737366756C6C790A00000C
:103D88005472616E736D69742053756363657373E0
:103D980066756C6C79204D300A0000005472616EB3
:103DA800736D6974205375636365737366756C6CA2
:103DB80079204D310A0000005472616E736D697488
:103DC800205375636365737366756C6C79204D3227
:103DD8000A0000005265636569766520616E64209B
:103DE8005472616E736D6974205375636365737380
:103DF80066756C6C790A00005265636569766520A2
:103E08005375636365737366756C6C790A0000009B
:103E180043414E206572726F720A00000000000074
:103E280001020304232D302B2000686C4C006566CA
:103E380067454647003031323334353637383941F3
:103E48004243444546003031323334353637383909
:083E580061626364656600000D
:083E600070C3FF7F01000000A8
:043E6800B501000898
:043E6C0091010008B8
:103E700010203040506070800024F40010000000DA
:103E8000010000001800002000000000A001002038
:103E90000802002070020020000000000000000066
:103EA0000000000000000000000000000000000012
:103EB0000000000000000000000000000000000002
:103EC00000000000000000000000000000000000F2
:043ED00000000000EE
:0400000508001135A9
:00000001FF
